:020000040800F2
:100000003018002021010008E10800089D080008C0
:10001000DD0800088D0100082B1400080000000016
:10002000000000000000000000000000B90F000800
:100030009101000800000000A10E0008A5100008B2
:100040003B0100083B0100083B0100083B010008A0
:100050003B0100083B0100083B0100083B01000890
:100060003B0100083B0100083B0100083B01000880
:100070003B0100083B0100083B0100083B01000870
:100080003B0100083B0100083B0100083B01000860
:100090003B0100083B0100083B0100083B01000850
:1000A0003B0100083B0100083B0100083B01000840
:1000B0003B0100083B0100083B0100083B01000830
:1000C0003B0100083B0100083B0100083B01000820
:1000D0003B0100084D1200083B0100083B010008ED
:1000E0003B0100083B0100083B010008DFF80CD091
:1000F00000F03AF800480047D114000830180020FA
:10010000EFF30980704780F309887047EFF30880A8
:10011000704780F30888704740BA7047C0BA70478C
:100120000648804706480047FEE7FEE7FEE7FEE791
:10013000FEE7FEE7FEE7FEE7FEE7FEE7A9100008A0
:10014000ED000008D2B201E000F8012B491EFBD2FD
:1001500070470022F6E710B513460A4604461946D2
:10016000FFF7F0FF204610BD064C074D06E0E068A3
:1001700040F0010394E8070098471034AC42F6D3EE
:10018000FFF7B8FF1C1600083C16000800BFFEE78A
:10019000704700000149C86070470000002002401D
:1001A00030B5044604254FF4302000F06FF80546C2
:1001B000042D17D10C48006940F002000A4908617B
:1001C00008464461006940F0400008614FF4302067
:1001D00000F05CF805460448006941F6FD710840EE
:1001E00001490861284630BD0020024004200B4927
:1001F000C96801F0010109B101200EE00749C96891
:1002000001F0040109B1022007E00449C96801F0C6
:10021000100109B1032000E00420704700200240D3
:100220000348006940F08000014908617047000000
:100230000020024070B504460D460426F00200F08E
:1002400025F80646042E11D10948006940F0010046
:10025000074908612580F00200F018F806460448B6
:10026000006941F6FE71084001490861304670BDE1
:100270000020024002480349486003484860704734
:100280002301674500200240AB89EFCD00B502464F
:100290000423FFF7ABFF034603E0FFF7A7FF034686
:1002A000521E012B01D1002AF7D102B905231846AD
:1002B00000BD000010B50446054804600020044954
:1002C00088804FF48062891D204600F080FB10BDBD
:1002D00018000020004870471E0000200148808858
:1002E00070470000180000200149086070470000B6
:1002F0001800002070B504460D462A4621460248E3
:1003000000F0EAFB70BD00001E000020014988805B
:10031000704700001800002070B500F072FB20B19B
:1003200027A000F021FB012070BD2E49086800F0D5
:1003300058FB50B12CA000F017FB00F05DFB10B192
:1003400032A000F011FB0120EEE7002416E0254862
:10035000801D025D611C405C42EA0025214909685C
:100360000819294600F026FB38B100F045FB10B112
:1003700026A000F0F9FA0120D6E7A41CB4F5806F9E
:10038000E5DB00240DE017480068055D1548801D79
:10039000005DA84204D025A000F0E6FA0120C3E7E2
:1003A000641CB4F5806FEEDB00F026FB00200D49E5
:1003B00088800846006800F5806008600020B3E788
:1003C0005B4F54415D5B4572726F725D3A466C6182
:1003D000736820556E4C6F636B204661696C640DC9
:1003E0000A000000180000205B4F54415D5B45721D
:1003F000726F725D3A466C61736820457261736515
:10040000204661696C640D0A000000005B4F544196
:100410005D5B4572726F725D3A466C617368204C29
:100420006F636B204661696C640D0A005B4F544139
:100430005D5B4572726F725D3A466C6173682056FF
:100440006572696679204572726F72202C446174FE
:1004500061204D69736D617463680D0A00000000CE
:100460002DE9F0410246002500260020002300244B
:10047000002791F803C00CF00F0591F803C00CF0B1
:10048000100CBCF1000F03D091F802C04CEA050536
:1004900091F800C0BCF1000F31D0146800202BE0AF
:1004A0004FF0010C0CFA00F3B1F800C00CEA03069F
:1004B0009E4220D183004FF00F0C0CFA03F7BC438F
:1004C00005FA03FC4CEA040491F803C0BCF1280FC0
:1004D00006D14FF0010C0CFA00FCC2F814C00AE07F
:1004E00091F803C0BCF1480F05D14FF0010C0CFA94
:1004F00000FCC2F810C0401C0828D1D31460B1F829
:1005000000C0BCF1FF0F34DD546800202EE000F184
:10051000080C4FF0010808FA0CF3B1F800C00CEA1F
:1005200003069E4221D183004FF00F0C0CFA03F713
:10053000BC4305FA03FC4CEA040491F803C0BCF187
:10054000280F05D100F1080C08FA0CF8C2F8148045
:1005500091F803C0BCF1480F07D100F1080C4FF02F
:10056000010808FA0CF8C2F81080401C0828CED305
:100570005460BDE8F0810246002093680B400BB147
:10058000012000E00020704710B504460448447084
:1005900002200349087003A000F0E6F910BD000036
:1005A000200400205B4F54415D3A474554205041A0
:1005B000434B204E554D0D0A0000000010B5044677
:1005C0000C48847040780B4989780844C0B2FF28F1
:1005D00009D0094800F0C8F9152000F0D1FB00202F
:1005E0000449087004E000200249C8800320087014
:1005F00010BD000020040020D815000810B50446E6
:1006000004A000F0B1F92002074908810520087014
:1006100010BD00005B4F54415D3A47657420437242
:1006200063310D0A000000002004002070B504466C
:1006300032A000F099F936480089204334490881F6
:10064000084681880C3000F017FF31494881084680
:1006500040890989884245D12D4840782C49C9787C
:1006600088422DD1FFF73AFEC0F58060284989887D
:10067000884206DAFFF750FE18B1002024490870BE
:1006800070BDFFF727FE0646FFF728FE3518204805
:10069000828800F10C01284600F036FD1C48C07825
:1006A000401C1B49C870FFF719FE19498988084486
:1006B00085B22846FFF72AFE062000F061FB17E00E
:1006C00013484178C078401EC0B2814203D1062051
:1006D00000F056FB0CE00FA000F046F9152000F0EA
:1006E0004FFBCDE715A000F03FF9152000F048FBC7
:1006F00000200749087000BFC2E700005B4F54416B
:100700005D3A47657420437263320D0A00000000B1
:10071000200400205B4F54415D5B4572726F725D37
:100720003A5061636B6574204F7264657220436F49
:100730006E667573696F6E0D0A0000005B4F544161
:100740005D5B4572726F725D3A4372633136204968
:100750007320496E636F6E73697374656E740D0AEE
:10076000000000000949CA88C988491C074BD98084
:1007700003F10C0188540C39C9881A4692889142B9
:1007800002D104211A461170704700002004002095
:1007900010B50446012C0AD180201D498880012013
:1007A00008701C4908701CA000F0DEF810BD022C77
:1007B0000AD1600216498880012008701549087026
:1007C0001AA000F0D1F8F1E7042C0CD1062000F0BB
:1007D000D7FAFFF783FD002801DDFFF79DFD02201A
:1007E0000C490870E2E7182C09D103200949087068
:1007F00000200749087012A000F0B6F8D6E71BA049
:1008000000F0B2F800200349087000BFCEE70000F6
:1008100020040020140000205B4F54415D3A534FE8
:1008200048204D4F44450D0A000000005B4F5441E5
:100830005D3A535458204D4F44450D0A00000000C6
:100840005B4F54415D5B4572726F725D3A547261E9
:100850006E736D697373696F6E20696E7465727201
:1008600075707465642E0D0A000000005B4F5441E2
:100870005D5B4572726F725D3A416E20566E6B6EB3
:100880006F776E204368617261637465722057618F
:100890007320526561642E0D0A00000000BFFEE760
:1008A0002DE9F041044672B600F02AF900204FF01D
:1008B000E0210861486188612668656829463046FC
:1008C00000F0DAF8044804603046FFF722FC2F46B7
:1008D000B847BDE8F081000008ED00E000BFFEE78A
:1008E0007047000070B5002100230F22C47804B3C4
:1008F000154C246804F4E064C4F5E064210AC1F1F5
:100900000403CA40447804FA03F184781440214374
:1009100009010E4C0678A155047804F01F05012446
:10092000AC4005786D11AD0005F1E025C5F800413A
:1009300009E0047804F01F050124AC40044D06785A
:10094000761145F8264070BD0CED00E000E400E0B3
:1009500080E100E002490143024A11607047000053
:100960000000FA050CED00E010B504460CB90020BB
:1009700010BD0BE000BF8021074800F085FC002877
:10098000F9D014F8011B044800F04BFD2078002832
:10099000F0D10120ECE700000044004008B54FF41E
:1009A000FA50009000E000BF0098411E009100281E
:1009B000F9D108BD70B504460D4629462046FFF71B
:1009C00039FC042801D0012070BD0020FCE770B57F
:1009D00004460D46164632462146284600F07CF86D
:1009E00070BD10B504462046FFF7DAFB042801D09D
:1009F000012010BD0020FCE710B5FFF711FC00201E
:100A000010BD10B5FFF736FC3420FFF7C3FB002004
:100A100010BD000010B50446207A78B9607A10B194
:100A2000607A01280AD1104800F002FD08B10E4892
:100A300010BDA07A012801D10C48F9E7207A0128DD
:100A40000FD1A07A10B1A07A01280AD1074800F08E
:100A5000EFFC08B10548EBE7607A012801D10248B4
:100A6000E6E70020E4E70000003400080058000832
:100A700000487047200400200246B2F1006F02D304
:100A80000548824201D90120704701F0010008B9F0
:100A90000220F9E70020F7E70080000870B50A4D52
:100AA0004FF4A0440948854204D20948FFF75CFF8F
:100AB000012070BDB4F5806F04D20648FFF754FFE3
:100AC0000320F6E70020F4E7FF7F0008003000086D
:100AD000FC1400086C15000810B503E011F8013B88
:100AE00000F8013B131EA2F10102F7D110BD10B5B1
:100AF00001E000F8011B131EA2F10102F9D110BDA3
:100B000070473EB5044630208DF8000078208DF8FF
:100B10000100002016E01C22A2EB800224FA02F25F
:100B200002F00F010A2906DA01F13002D3B2821C69
:100B30000DF8023005E001F13702D3B2821C0DF846
:100B40000230401C0828E6DB00208DF80A006846C9
:100B5000FFF70AFF3EBD10B50446204600F066F9D7
:100B600010BD00007FB58BE0FFF798FF00B17FBD9F
:100B7000444B0FCB8DE80F004349009888420DD0BD
:100B800008460090002001908DF80800FF208DF8A5
:100B900009008DF80A00684600F0D4F8684600F0B5
:100BA0000BF900F0FFF8002842D09DF8080028B9A2
:100BB0009DF80900FF2801D1344D06E09DF808009A
:100BC00008B9334800E03148054632A0FFF7CCFEB3
:100BD00037A0FFF7C9FE05F11000FFF792FF3FA015
:100BE000FFF7C2FE284600F07BF802281FD19DF8CF
:100BF000080080B99DF80900FF2805D100208DF874
:100C000009008DF808000BE000208DF80A00012093
:100C10008DF8080004E000208DF809008DF8080028
:100C2000684600F08FF805F11000FFF739FE27E065
:100C30006846FFF7EFFE04461CB104F11000FFF711
:100C40002FFE1BA0FFF790FE10481030FFF759FF52
:100C500022A0FFF789FE0D4800F042F802280ED1CD
:100C600000208DF808008DF80900FF208DF80A009B
:100C7000684600F067F805481030FFF711FE76E788
:100C800072E700000030000801005A5A00340008E2
:100C9000005800085B4F54415D3A53656C656374BE
:100CA000696E67204941502E2E2E200D0A0000004B
:100CB0005B4F54415D3A506C656173652073657498
:100CC0002074686520494F4D2061646472657373B8
:100CD00020746F203A200D0A000000000D0A000069
:100CE00070B5054612A0FFF73FFE284600F086F8D3
:100CF0001CE0FFF7BDFE007870B900F0B3F858B9FA
:100D0000432000F03DF8002403E0FFF747FE601C9D
:100D1000C4B2642CF9DB00BF00F0A4F8022800D1B3
:100D200070BD00F09FF8032800D1F9E7E1E700006B
:100D30005B4F54415D3A494150696E672E2E2E0D2E
:100D40000A00000010B5ADF5806D04464FF48062D6
:100D5000FF216846FFF7CBFE102221466846FFF7C9
:100D6000BBFE0648FFF7C0FA4FF480616846FFF704
:100D7000C1FAFFF7D1FA0DF5806D10BD0030000803
:100D800010B5044600BF8021054800F07DFA002818
:100D9000F9D02146024800F044FB002010BD0000BD
:100DA0000038014010B54FF400610248FFF7E3FB43
:100DB00010BD0000000C014070B504460D4800F065
:100DC00037FBC5B20C4800F033FBC6B2607A28B9D5
:100DD00015B10120607201E002206072A07A28B98A
:100DE00016B10120A07201E00220A0722046FFF798
:100DF000A9FF70BD003400080058000810B5044673
:100E000040F20C410748FFF7A4F90020054908709B
:100E10000120C8700020044908702046FFF74AFAF4
:100E200010BD0000200400201400002010B504466E
:100E30000A48007806280DDA08480078084951F871
:100E4000200038B1054800780A4652F820102046A4
:100E5000884702E000200149087010BD20040020EE
:100E6000E4140008014800787047000014000020D6
:100E700008B5002000900121082000F023F84FF46D
:100E80000060ADF8000028208DF8030003208DF8E5
:100E9000020069460148FFF7E3FA08BD000C014073
:100EA0007047000029B1064AD2690243044BDA6157
:100EB00004E0034AD2698243014BDA6170470000C3
:100EC0000010024029B1064A92690243044B9A611C
:100ED00004E0034A92698243014B9A617047000023
:100EE0000010024030B500210022002400232D4DC7
:100EF0006D6805F00C0121B1042905D0082923D122
:100F000005E0294D056022E0274D05601FE0254DD5
:100F10006D6805F47012234D6D6805F48034022568
:100F200005EB92421CB9214D554305600BE01D4D68
:100F30006D6805F400351DB11C4D5543056002E098
:100F4000194D5543056002E0174D056000BF00BF15
:100F5000144D6D6805F0F0010909154D6B5C0568CD
:100F6000DD4045600F4D6D6805F4E061090A104DE4
:100F70006B5C4568DD4085600A4D6D6805F4605125
:100F8000C90A0B4D6B5C4568DD40C560054D6D6859
:100F900005F44041890B074D6B5CC568B5FBF3F563
:100FA000056130BD0010024000127A0000093D00CA
:100FB0000000002010000020704710B500F002F87B
:100FC00010BD00000CB5002001900090334800686F
:100FD00040F480303149086000BF3048006800F4B8
:100FE000003000900198401C0190009818B90198B9
:100FF000B0F5A06FF1D12948006800F4003010B1BD
:101000000120009001E0002000900098012843D1C9
:101010002348006840F01000214908600846006835
:1010200020F0030008600846006840F002000860F5
:101030001A484068194948600846406848600846B0
:10104000406840F4806048600846406820F47C10A6
:1010500048600846406840F4E81048600846006868
:1010600040F08070086000BF0C48006800F000701D
:101070000028F9D00948406820F00300074948607B
:101080000846406840F00200486000BF03484068DE
:1010900000F00C000828F9D10CBD0000001002403F
:1010A000002002407047000010B51348006840F06F
:1010B00001001149086008464068104908400E497F
:1010C0004860084600680E4908400B490860084619
:1010D000006820F4802008600846406820F4FE0084
:1010E00048604FF41F008860FFF767FF4FF0006013
:1010F0000449086010BD0000001002400000FFF825
:10110000FFFFF6FE08ED00E010B500B101B910BD1B
:1011100003E011F8013B00F8013B131EA2F10102AC
:10112000F7D100BFF3E7000000B587B0012144F21A
:101130000500FFF7C7FE4FF40070ADF81800182047
:101140008DF81B0003208DF81A0006A91E48FFF732
:1011500087F94FF48060ADF8180004208DF81B006B
:1011600006A91948FFF77CF94FF4165002900020A9
:10117000ADF80C00ADF80E00ADF81000ADF814009D
:101180000C20ADF8120002A9104800F0D9F8012295
:1011900040F225510D4800F0AEF84FF4A060FFF783
:1011A000D9FB25208DF8040001208DF805008DF86D
:1011B00006008DF8070001A8FFF794FB0121034802
:1011C00000F056F807B000BD0008014000380140AB
:1011D00000B585B001214804FFF764FE0121042019
:1011E000FFF770FE0420ADF8100018208DF81300F2
:1011F00003208DF8120004A91248FFF731F90820E6
:10120000ADF8100004208DF8130004A90D48FFF775
:1012100027F94FF4E13000900020ADF80400ADF85C
:101220000600ADF80800ADF80C000C20ADF80A007F
:101230006946054800F084F80121034800F018F8D9
:1012400005B000BD000801400044004010B540F268
:101250002551064800F025F838B1044800F0DCF8C4
:10126000C4B22046FFF777FC00BF10BD0038014034
:1012700021B1828942F40052828104E082894DF6D4
:10128000FF731A408281704702460020B1F5007F4B
:1012900000D100BF13880B400BB1012000E00020FB
:1012A000704770B50246002400230025002040F658
:1012B0006A16B14200D100BFC1F3421501F01F030D
:1012C000012606FA03F3012D02D19689334006E088
:1012D000022D02D1168A334001E0968A33400C1267
:1012E000012606FA04F41688344013B10CB101202B
:1012F00000E0002070BDF0B5034600240026002564
:10130000002040F66A17B94200D100BF1846C1F369
:10131000421401F01F06012707FA06F5012C01D13E
:101320000C3004E0022C01D1103000E014301AB16E
:1013300007682F43076002E00768AF430760F0BD0E
:101340002DE9F04786B005460E460024A24600BFB0
:10135000A1460027B08900B100BF2F462C8A4CF669
:10136000FF700440F08804432C82AC894EF6F310E1
:101370000440B08831890843718908430443AC8133
:10138000AC8A4FF6FF400440B0890443AC8201A808
:10139000FFF7A8FD1F48874202D1DDF810A001E049
:1013A000DDF80CA0A88900F4004040B10AEBCA00A7
:1013B00000EB0A1031684900B0FBF1F807E00AEBD6
:1013C000CA0000EB0A1031688900B0FBF1F8642014
:1013D000B8FBF0F004012009642101FB1089A88901
:1013E00000F4004040B1322000EBC900B0FBF1F046
:1013F00000F00700044308E0322000EB09106421EC
:10140000B0FBF1F000F00F0004432C8106B0BDE802
:10141000F08700000038014001468888C0F30800CA
:101420007047C1F308028280704700BFFEE70000EA
:101430002DE9F04105462C460E492068884202D02D
:101440000020BDE8F081606818B16068B0F5105FF9
:1014500001D90020F5E705F110073846616800F072
:101460000BF80646A089B04201D00020E9E7012030
:10147000E7E7000050414C4230B502460B460020E1
:10148000002113E0545C80EA042000240BE000F407
:10149000004525B141F2210585EA400500E04500FF
:1014A000A8B2651CECB2082CF1DB491C9942E9D3C7
:1014B00030BD02E008C8121F08C1002AFAD17047E7
:1014C0007047002001E001C1121F002AFBD17047C4
:1014D000FFF72AFEFFF77CFEFFF7CAFCFFF742FB8F
:1014E00000BFFEE79107000889050008BD05000858
:1014F00065070008FD0500082D0600085B4F5441F4
:101500005D5B4572726F725D3A496E204F7461493E
:101510006E74657266616365202D2054686520666F
:101520006C61736820737061636520616C6C6F63BC
:101530006174656420746F204D696E694F54412059
:101540006D757374206265206C6F636174656420CF
:1015500077697468696E2074686520466C61736889
:10156000206D656D6F72792E2E0D0A005B4F544110
:101570005D5B4572726F725D3A496E204F746149CE
:101580006E74657266616365202D204D696E694FCA
:10159000544120617661696C61626C6520666C61A2
:1015A00073682073746F726167652073706163651F
:1015B000206D757374206265206C6172676572209E
:1015C0007468616E206F6E6520466C617368207070
:1015D0006167652E0D0A00005B4F54415D5B4572EB
:1015E000726F725D3A4D69736D61746368656420F2
:1015F0005061636B6167652053657269616C204E51
:10160000756D6265727320416E6420496E766572F5
:10161000736520436F6465730D0A00003C16000873
:101620000000002018000000B21400085416000842
:101630001800002018180000C21400080000000064
:101640000102030401020304060708090204060854
:041650000000000096
:04000005080000ED02
:00000001FF
