:020000040800F2
:1000000030100020650100084907000819070008A2
:1000100045070008F5010008030F00080000000074
:10002000000000000000000000000000910A00082D
:10003000F901000800000000790900087D0B0008A4
:100040007F0100087F0100087F0100087F01000890
:100050007F0100087F0100087F0100087F01000880
:100060007F0100087F0100087F0100087F01000870
:100070007F0100087F0100087F0100087F01000860
:100080007F0100087F0100087F0100087F01000850
:100090007F0100087F0100087F0100087F01000840
:1000A0007F0100087F0100087F0100087F01000830
:1000B0007F0100087F0100087F0100087F01000820
:1000C0007F0100087F0100087F0100087F01000810
:1000D0007F010008250D00087F0100087F0100084E
:1000E0007F0100087F0100087F0100087F010008F0
:1000F0007F0100087F0100087F0100087F010008E0
:100100007F0100087F0100087F0100087F010008CF
:100110007F0100087F0100087F0100087F010008BF
:100120007F0100087F0100087F0100087F010008AF
:10013000DFF80CD000F04CF800480047610F0008D1
:1001400030100020EFF30980704780F30988704772
:10015000EFF30880704780F30888704740BA704713
:10016000C0BA70470648804706480047FEE7FEE7EA
:10017000FEE7FEE7FEE7FEE7FEE7FEE7FEE7FEE757
:10018000810B00083101000840EA01039B0703D0FE
:1001900009E008C9121F08C0042AFAD203E011F8C6
:1001A000013B00F8013B521EF9D27047D2B201E088
:1001B00000F8012B491EFBD270470022F6E710B56C
:1001C00013460A4604461946FFF7F0FF204610BDC5
:1001D000064C074D06E0E06840F0010394E8070094
:1001E00098471034AC42F6D3FFF7A6FFA40F0008DF
:1001F000C40F000800BFFEE7704700000149C86057
:10020000704700000020024030B5044604254FF43A
:10021000302000F06FF80546042D17D10C48006916
:1002200040F002000A49086108464461006940F054
:10023000400008614FF4302000F05CF805460448A7
:10024000006941F6FD71084001490861284630BD4A
:100250000020024004200B49C96801F0010109B1E6
:1002600001200EE00749C96801F0040109B102202C
:1002700007E00449C96801F0100109B1032000E05A
:1002800004207047002002400348006940F08000CD
:1002900001490861704700000020024070B5044623
:1002A0000D460426F00200F025F80646042E11D172
:1002B0000948006940F00100074908612580F00203
:1002C00000F018F806460448006941F6FE7108403F
:1002D00001490861304670BD0020024002480349D0
:1002E000486003484860704723016745002002408A
:1002F000AB89EFCD00B502460423FFF7ABFF034601
:1003000003E0FFF7A7FF0346521E012B01D1002A8D
:10031000F7D102B90523184600BD000010B5064804
:1003200006490860002088804FF48062891D0248D9
:1003300000F081FA10BD0000003000081800002015
:10034000004870471E000020014880887047000068
:100350001800002001498880704700001800002024
:1003600070B500F082FA08B1012070BD1649086826
:1003700000F06BFA18B100F073FA0120F5E70024E1
:1003800012E01148801D025D611C405C42EA0025BC
:100390000D4909680819294600F040FA18B100F023
:1003A0005FFA0120E1E7A41CB4F5806FE9DB00F0FF
:1003B00057FA0020044988800846006800F58060EC
:1003C00008600020D1E70000180000202DE9F0416E
:1003D000024600250026002000230024002791F873
:1003E00003C00CF00F0591F803C00CF0100CBCF129
:1003F000000F03D091F802C04CEA050591F800C047
:10040000BCF1000F31D0146800202BE04FF0010C3C
:100410000CFA00F3B1F800C00CEA03069E4220D1AA
:1004200083004FF00F0C0CFA03F7BC4305FA03FCF2
:100430004CEA040491F803C0BCF1280F06D14FF038
:10044000010C0CFA00FCC2F814C00AE091F803C0D9
:10045000BCF1480F05D14FF0010C0CFA00FCC2F8BA
:1004600010C0401C0828D1D31460B1F800C0BCF102
:10047000FF0F34DD546800202EE000F1080C4FF02F
:10048000010808FA0CF3B1F800C00CEA03069E421A
:1004900021D183004FF00F0C0CFA03F7BC4305FA8F
:1004A00003FC4CEA040491F803C0BCF1280F05D109
:1004B00000F1080C08FA0CF8C2F8148091F803C097
:1004C000BCF1480F07D100F1080C4FF0010808FA01
:1004D0000CF8C2F81080401C0828CED35460BDE848
:1004E000F08101617047000010B504460448447073
:1004F00002200349087003A000F06AF910BD000053
:10050000200400205B4F54415D3A47455420504140
:10051000434B204E554D0D0A0000000010B5044617
:100520000A4884704078094989780844C0B2FF2895
:1005300006D0152000F0D6F900200449087004E028
:1005400000200249C8800320087010BD200400204C
:1005500010B5044604A000F03BF9200207490881C9
:100560000520087010BD00005B4F54415D3A47659F
:100570007420437263310D0A000000002004002043
:1005800070B5044630A000F023F9344800892043B8
:1005900032490881084681880C3000F0B4FC2F49AC
:1005A0004881084640890989884245D12B484078CE
:1005B0002A49C978884230D1FFF7C6FEC0F580606D
:1005C00026498988884209DAFFF7CAFE30B115202A
:1005D00000F088F900202149087070BDFFF7B0FED7
:1005E0000646FFF7B1FE35181C48828800F10C0161
:1005F000284600F0F5FA1948C078401C1749C87021
:10060000FFF7A2FE15498988084485B22846FFF7FE
:10061000A1FE062000F066F911E010484178C0788C
:10062000401EC0B2814203D1062000F05BF906E013
:10063000152000F057F902E0152000F053F90020D2
:100640000649087000BFC8E75B4F54415D3A4765F3
:100650007420437263320D0A000000002004002061
:100660000949CA88C988491C074BD98003F10C0184
:1006700088540C39C9881A469288914202D10421C3
:100680001A461170704700002004002010B504467F
:10069000012C0AD180201449888001200870134958
:1006A000087013A000F094F81AE0022C0AD160023E
:1006B0000D498880012008700C49087011A000F0D5
:1006C00087F80DE0042C0BD1062000F00BF9FFF7A2
:1006D0003BFE002801DDFFF743FE022003490870BE
:1006E00000200249087010BD2004002014000020E2
:1006F0005B4F54415D3A534F48204D4F44450D0ADE
:10070000000000005B4F54415D3A535458204D4F58
:1007100044450D0A0000000000BFFEE770B572B648
:1007200000204FF0E02108614861886104480568B5
:1007300044682846FFF70FFD2646B04770BD00000D
:100740000030000800BFFEE77047000070B50021D0
:1007500000230F22C47804B3154C246804F4E06429
:10076000C4F5E064210AC1F10403CA40447804FAE4
:1007700003F184781440214309010E4C0678A155F9
:10078000047804F01F050124AC4005786D11AD001C
:1007900005F1E025C5F8004109E0047804F01F05E3
:1007A0000124AC40044D0678761145F8264070BD12
:1007B0000CED00E000E400E080E100E002490143CC
:1007C000024A1160704700000000FA050CED00E0DD
:1007D00010B504460CB9002010BD0BE000BF80210D
:1007E000074800F0BDFA0028F9D014F8011B0448AE
:1007F00000F083FB20780028F0D10120ECE7000016
:100800000044004008B54FF4FA50009000E000BFEB
:100810000098411E00910028F9D108BD70B504462A
:100820000D4629462046FFF739FD042801D0012056
:1008300070BD0020FCE770B504460D4616463246F2
:1008400021462846FFF7A0FC70BD10B5044620469F
:10085000FFF7DAFC042801D0012010BD0020FCE7DE
:1008600010B5FFF711FD002010BD10B5FFF736FDE4
:100870003420FFF7C3FC002010BD00000048704783
:100880002004002010B50446204600F053F810BDA7
:100890000FA0FFF79DFF00F037F818E0FFF7EEFF1D
:1008A000007870B900F062F858B9432000F01AF8E7
:1008B000002403E0FFF7A6FF601CC4B2642CF9DB40
:1008C00000BF00F053F8022801D1FFF727FFE5E74A
:1008D0005B4F54415D7374657020696E2052756E74
:1008E0004F54410010B5044600BF8021054800F078
:1008F00037FA0028F9D02146024800F0FEFA00201D
:1009000010BD00000038014010B540F20C4107480E
:10091000FFF753FC0020054908700120C870002033
:1009200003490870FFF7FAFC10BD00002004002006
:100930001400002010B504460A48007806280DDA95
:1009400008480078084951F8200038B10548007877
:100950000A4652F820102046884702E0002001494C
:10096000087010BD200400208C0F0008014800789A
:1009700070470000140000207047000029B1064AAB
:10098000D2690243044BDA6104E0034AD26982432C
:10099000014BDA61704700000010024029B1064A9D
:1009A00092690243044B9A6104E0034A92698243CC
:1009B000014B9A61704700000010024030B50021E1
:1009C0000022002400232D4D6D6805F00C0121B19B
:1009D000042905D0082923D105E0294D056022E02E
:1009E000274D05601FE0254D6D6805F47012234DFD
:1009F0006D6805F48034022505EB92421CB9214D47
:100A0000554305600BE01D4D6D6805F400351DB1C3
:100A10001C4D5543056002E0194D5543056002E049
:100A2000174D056000BF00BF144D6D6805F0F00163
:100A30000909154D6B5C0568DD4045600F4D6D681B
:100A400005F4E061090A104D6B5C4568DD40856086
:100A50000A4D6D6805F46051C90A0B4D6B5C456821
:100A6000DD40C560054D6D6805F44041890B074DBB
:100A70006B5CC568B5FBF3F5056130BD0010024045
:100A800000127A0000093D00000000201000002044
:100A9000704710B500F002F810BD00000CB5002042
:100AA000019000903348006840F48030314908607C
:100AB00000BF3048006800F4003000900198401CEE
:100AC0000190009818B90198B0F5A06FF1D12948AC
:100AD000006800F4003010B10120009001E0002017
:100AE00000900098012843D12348006840F010008E
:100AF000214908600846006820F0030008600846A5
:100B0000006840F0020008601A48406819494860CF
:100B10000846406848600846406840F48060486085
:100B20000846406820F47C1048600846406840F45D
:100B3000E81048600846006840F08070086000BF18
:100B40000C48006800F000700028F9D0094840689F
:100B500020F00300074948600846406840F0020062
:100B6000486000BF0348406800F00C000828F9D135
:100B70000CBD000000100240002002407047000041
:100B800010B51348006840F001001149086008469C
:100B90004068104908400E494860084600680E4900
:100BA00008400B4908600846006820F4802008606F
:100BB0000846406820F4FE0048604FF41F0088603B
:100BC000FFF767FF4FF000600449086010BD0000A8
:100BD000001002400000FFF8FFFFF6FE08ED00E005
:100BE00010B500B101B910BD03E011F8013B00F8E8
:100BF000013B131EA2F10102F7D100BFF3E7000091
:100C000000B587B0012144F20500FFF7C7FE4FF49D
:100C10000070ADF8180018208DF81B0003208DF827
:100C20001A0006A91E48FFF7D1FB4FF48060ADF80B
:100C3000180004208DF81B0006A91948FFF7C6FB11
:100C40004FF4165002900020ADF80C00ADF80E00E5
:100C5000ADF81000ADF814000C20ADF8120002A998
:100C6000104800F0D9F8012240F225510D4800F05B
:100C7000AEF84FF4A060FFF7A1FD25208DF8040029
:100C800001208DF805008DF806008DF8070001A8F9
:100C9000FFF75CFD0121034800F056F807B000BDE6
:100CA000000801400038014000B585B0012148042A
:100CB000FFF764FE01210420FFF770FE0420ADF869
:100CC000100018208DF8130003208DF8120004A9DD
:100CD0001248FFF77BFB0820ADF8100004208DF8C8
:100CE000130004A90D48FFF771FB4FF4E1300090A9
:100CF0000020ADF80400ADF80600ADF80800ADF82E
:100D00000C000C20ADF80A006946054800F084F894
:100D10000121034800F018F805B000BD00080140AB
:100D20000044004010B540F22551064800F025F877
:100D300038B1044800F0DCF8C4B22046FFF7A2FD49
:100D400000BF10BD0038014021B1828942F4005239
:100D5000828104E082894DF6FF731A4082817047D8
:100D600002460020B1F5007F00D100BF13880B4080
:100D70000BB1012000E00020704770B5024600244E
:100D800000230025002040F66A16B14200D100BFC2
:100D9000C1F3421501F01F03012606FA03F3012DEA
:100DA00002D19689334006E0022D02D1168A3340E3
:100DB00001E0968A33400C12012606FA04F41688E4
:100DC000344013B10CB1012000E0002070BDF0B53B
:100DD0000346002400260025002040F66A17B94289
:100DE00000D100BF1846C1F3421401F01F060127CD
:100DF00007FA06F5012C01D10C3004E0022C01D1D8
:100E0000103000E014301AB107682F43076002E089
:100E10000768AF430760F0BD2DE9F04786B005468F
:100E20000E460024A24600BFA1460027B08900B1AB
:100E300000BF2F462C8A4CF6FF700440F088044314
:100E40002C82AC894EF6F3100440B08831890843F7
:100E5000718908430443AC81AC8A4FF6FF400440DB
:100E6000B0890443AC8201A8FFF7A8FD1F48874260
:100E700002D1DDF810A001E0DDF80CA0A88900F493
:100E8000004040B10AEBCA0000EB0A10316849008B
:100E9000B0FBF1F807E00AEBCA0000EB0A1031687A
:100EA0008900B0FBF1F86420B8FBF0F004012009E0
:100EB000642101FB1089A88900F4004040B1322070
:100EC00000EBC900B0FBF1F000F00700044308E0BC
:100ED000322000EB09106421B0FBF1F000F00F00AC
:100EE00004432C8106B0BDE8F087000000380140C3
:100EF00001468888C0F308007047C1F30802828069
:100F0000704700BFFEE730B502460B4600200021C7
:100F100013E0545C80EA042000240BE000F4004558
:100F200025B141F2210585EA400500E04500A8B25F
:100F3000651CECB2082CF1DB491C9942E9D330BDA9
:100F400002E008C8121F08C1002AFAD17047704792
:100F5000002001E001C1121F002AFBD170470000F0
:100F6000FFF74EFEFFF7A0FE05A0FFF731FC4FF4A0
:100F700000510548FFF7B5FAFFF78AFC00BFFEE70E
:100F80005354415254000000001001408D060008E7
:100F9000E90400081D050008610600085105000865
:100FA00081050008C40F00080000002018000000A0
:100FB000400F0008DC0F0008180000201810000087
:100FC000500F0008000000000102030401020304A6
:0C0FD000060708090204060800000000E3
:040000050800016589
:00000001FF
